:100000000C9485000C94AD000C94AD000C94AD00E4
:100010000C94AD000C94AD000C94AD000C94AD00AC
:100020000C94AD000C94AD000C94AD000C94AD009C
:100030000C94AD000C94AD000C94AD000C94AD008C
:100040000C94B6080C94AD000C9484080C945E08D3
:100050000C94AD000C94AD000C94AD000C94AD006C
:100060000C9400090C94AD0000000000240027004F
:100070002A0000000000250028002B0000000000DE
:1000800023002600290004040404040404040202DA
:100090000202020203030303030301020408102007
:1000A0004080010204081020010204081020000012
:1000B0000008000201000003040700000000000027
:1000C00000002D454550524F4D20557064617465B8
:1000D000642D005363686564756C696E6746696E6C
:1000E000697368005365742054696D652046696EB4
:1000F0006973682000536574204461746520466903
:100100006E69736820001B0AC71211241FBECFEF4F
:10011000D8E0DEBFCDBF23E0AAEBB1E001C01D9265
:10012000AD31B207E1F711E0A0E0B1E0E4E8FEE2B2
:1001300002C005900D92AA3BB107D9F710E0C4E8C0
:10014000D0E004C02197FE010E943D15C338D107BD
:10015000C9F70E94880A0C9435170C940000AF92DE
:10016000BF92CF92DF92EF92FF920F931F93CF93A4
:10017000DF936C017B018B01040F151FEB015E0106
:10018000AE18BF08C017D10759F06991D601ED919B
:10019000FC910190F081E02DC6010995892B79F73A
:1001A000C501DF91CF911F910F91FF90EF90DF90EC
:1001B000CF90BF90AF900895FC01538D448D252FB3
:1001C00030E0842F90E0821B930B541710F0CF96F1
:1001D000089501970895FC01918D828D981761F023
:1001E000A28DAE0FBF2FB11D5D968C91928D9F5F3A
:1001F0009F73928F90E008958FEF9FEF0895FC0119
:10020000918D828D981731F0828DE80FF11D858DCB
:1002100090E008958FEF9FEF0895FC01918D228D5E
:10022000892F90E0805C9F4F821B91098F739927E3
:1002300008958CE492E00E940D0121E0892B09F4DD
:1002400020E0822F089580E090E0892B29F00E9421
:10025000190181110C9400000895FC01A48DA80FD0
:10026000B92FB11DA35ABF4F2C91848D90E00196F8
:100270008F739927848FA689B7892C93A089B18918
:100280008C91837080648C93938D848D981306C0B9
:100290000288F389E02D80818F7D80830895EF921D
:1002A000FF920F931F93CF93DF93EC0181E0888F30
:1002B0009B8D8C8D98131AC0E889F989808185FF00
:1002C00015C09FB7F894EE89FF896083E889F989A2
:1002D00080818370806480839FBF81E090E0DF91A4
:1002E000CF911F910F91FF90EF900895F62E0B8DF7
:1002F00010E00F5F1F4F0F731127E02E8C8D8E11B2
:100300000CC00FB607FCFACFE889F989808185FF18
:10031000F5CFCE010E942D01F1CFEB8DEC0FFD2F1B
:10032000F11DE35AFF4FF0829FB7F8940B8FEA89D3
:10033000FB8980818062CFCFCF93DF93EC01888DE2
:100340008823B9F0AA89BB89E889F9898C9185FD50
:1003500003C0808186FD0DC00FB607FCF7CF8C91DE
:1003600085FFF2CF808185FFEDCFCE010E942D0168
:10037000E9CFDF91CF910895833081F028F4813067
:1003800099F08230A9F008958730A9F08830C9F03B
:100390008430B1F4809180008F7D03C08091800013
:1003A0008F7780938000089584B58F7784BD0895FA
:1003B00084B58F7DFBCF8091B0008F778093B000A4
:1003C00008958091B0008F7DF9CFCF93DF93282FD0
:1003D00030E0F901E255FF4F8491F901E656FF4FF5
:1003E000D491F901EA57FF4FC491CC23A1F08111B8
:1003F0000E94BC01EC2FF0E0EE0FFF1FE458FF4F0E
:10040000A591B491EC91ED2381E090E009F480E0B6
:10041000DF91CF91089580E090E0FACF1F93CF93C2
:10042000DF93282F30E0F901E255FF4F8491F90165
:10043000E656FF4FD491F901EA57FF4FC491CC2300
:10044000A9F0162F81110E94BC01EC2FF0E0EE0FF5
:10045000FF1FEE58FF4FA591B4918FB7F894EC9120
:10046000111108C0D095DE23DC938FBFDF91CF91AF
:100470001F910895DE2BF8CFCF93DF9390E0FC011E
:10048000E656FF4F24918A579F4FFC0184918823A1
:10049000C9F090E0880F991FFC01E859FF4FA59122
:1004A000B491FC01EE58FF4FC591D49161110DC07C
:1004B0009FB7F8948C91209582238C938881282370
:1004C00028839FBFDF91CF910895623051F49FB789
:1004D000F8943C91822F809583238C93E8812E2B76
:1004E000EFCF8FB7F894EC912E2B2C938FBFEACFE0
:1004F00060E08091F8020E943C0261E08091F70286
:100500000E940E028091F8020E94E5010197D1F34A
:1005100060E08091F7020C940E02CF93DF93C7EF57
:10052000D2E061E089810E943C0260E089810E9402
:100530000E0261E088810E940E0261E089810E94C2
:100540000E0260E08981DF91CF910C943C02CF9341
:10055000DF93C7EFD2E061E089810E943C0260E056
:1005600088810E940E0261E089810E940E0261E092
:1005700088810E940E0260E088810E940E0260E085
:100580008981DF91CF910C943C023FB7F894809120
:10059000300290913102A0913202B091330226B51F
:1005A000A89B05C02F3F19F00196A11DB11D3FBFAB
:1005B000BA2FA92F982F8827BC01CD01620F711D7A
:1005C000811D911D42E0660F771F881F991F4A9574
:1005D000D1F708958F929F92AF92BF92CF92DF9200
:1005E000EF92FF924B015C010E94C5026B017C01FE
:1005F0000E94C5026C197D098E099F09683E7340EF
:1006000081059105A8F321E0821A9108A108B1089B
:1006100088EEC80E83E0D81EE11CF11C8114910401
:10062000A104B10429F7FF90EF90DF90CF90BF9025
:10063000AF909F908F90089508952091E101260F2B
:100640003327331F21323105ECF420910502FC01E0
:1006500090E080E0243069F082E00895A091E1010B
:100660002191AC014F535E4FA40FB52FB11D2C93B8
:100670000196861798F38091E101680F6093E1017C
:1006800080E0089581E0089508958FEF9FEF089529
:100690008FEF9FEF08958091BA0190E09195819539
:1006A00091090895CF93DF93CB01EA01642F0E9453
:1006B0001D03CE01DF91CF910895CF93DF931F9259
:1006C000CDB7DEB7698361E0CE0101960E941D03BC
:1006D00081E090E00F90DF91CF91089590E080E06D
:1006E00008950F931F93CF93DF93082F162FD42FC6
:1006F000C8E06D2F661F6627661F802F0E940E02BE
:10070000DD0F61E0812F0E940E0260E0812F0E94C8
:100710000E02C15071F7DF91CF911F910F91089593
:100720001F93CF93DF93182FC7EFD2E061E0898149
:100730000E943C0261E089810E940E0261E0888192
:100740000E940E0260E089810E940E0260E08881B2
:100750000E940E02412F68818981DF91CF911F9104
:100760000C9471031F93CF93DF93182FC7EFD2E040
:1007700061E089810E943C02412F68818981DF917B
:10078000CF911F910C947103CF93DF93909100034D
:10079000992349F194EE9093BC009091BC0097FF8F
:1007A000FCCF90ED9093BB0094EC9093BC009091A3
:1007B000BC0097FFFCCF8093BB0084EC8093BC000F
:1007C0008091BC0087FFFCCF6093BB0084EC8093DA
:1007D000BC008091BC0087FFFCCF84E98093BC0003
:1007E000DF91CF910895C62FD82F80ED0E949003FE
:1007F0000E9478028D2F0E94B2030E9478028C2FF3
:100800000E94B2030E947802DF91CF910C948D0276
:100810001F93CF93DF9360E08091F8020E943C0227
:10082000C7E0D0E010E061E08091F7020E940E0284
:100830008091F8020E94E50199270C2E01C0880FD3
:100840000A94EAF7182B60E08091F7020E940E02EA
:10085000219748F7812FDF91CF911F910895CF9372
:1008600090910003992309F441C094EE9093BC0049
:100870009091BC0097FFFCCF90ED9093BB0094EC5F
:100880009093BC009091BC0097FFFCCF8093BB007D
:1008900084EC8093BC008091BC0087FFFCCF84EE89
:1008A0008093BC008091BC0087FFFCCF81ED8093DA
:1008B000BB0084EC8093BC008091BC0087FFFCCF20
:1008C00084EC8093BC008091BC0087FFFCCFC0917A
:1008D000BB0084E88093BC008091BC0087FFFCCF04
:1008E00084E98093BC008C2FCF910895C82F80EDB0
:1008F0000E9490030E9478028C2F0E94B2030E94F3
:10090000780281ED0E9490030E9478020E94080400
:10091000C82F0E94A7020E948D02E5CFEF92FF929E
:100920000F931F93CF93DF93CDB7DEB728970FB602
:10093000F894DEBF0FBECDBF80910003882309F479
:100940009BC084EE8093BC008091BC0087FFFCCFED
:1009500080ED8093BB0084EC8093BC008091BC0050
:1009600087FFFCCF1092BB0084EC8093BC00809189
:10097000BC0087FFFCCF84EE8093BC008091BC005C
:1009800087FFFCCF81ED8093BB0084EC8093BC009B
:100990008091BC0087FFFCCFE9EFF2E080E093E0BC
:1009A00034EC3093BC002091BC0027FFFCCF209199
:1009B000BB0021938E179F07A1F784E88093BC00AA
:1009C0008091BC0087FFFCCF84E98093BC004091FC
:1009D000F902842F829587705AE04F70859F400DF1
:1009E00011243091FA02832F829587703F70859F82
:1009F000300D11246091FB02262F2F70862F90E07E
:100A000067FF80C065FB882780F9FCE08F9F200D81
:100A10001124F091FC025091FD026091FE02809140
:100A2000FF02952F929597707AE05F70979F500D17
:100A30001124E62FE295E7706F70E79F600D112497
:100A4000982F92959F708F70979F800D112490E042
:100A50008053984F9F838E83782F8F819F2F289666
:100A60000FB6F894DEBF0FBECDBFDF91CF911F91BF
:100A70000F91FF90EF90089580ED0E9490030E94E7
:100A8000780280E00E94B2030E94780281ED0E9409
:100A900090030E94780279EFE72E72E0F72E10E0C3
:100AA00000E00E940804F70181937F0106301105E0
:100AB00031F161E08091F8020E943C0260E0809197
:100AC000F7020E940E0260E08091F8020E940E027E
:100AD00061E08091F7020E940E0260E08091F702CF
:100AE0000E940E0260E08091F8020E943C020F5FBB
:100AF0001F4F07301105A9F60E948D0268CF0E9492
:100B0000A702F5CF64E0959587956A95E1F7837024
:100B1000859F200D11247DCFCF93DF93EC0160E002
:100B20008E810E940E0261E08E810E940E0260E0C2
:100B30008E810E940E028BE891E00197F1F7DF9120
:100B4000CF910895CF92DF92EF92FF920F931F9370
:100B5000CF93DF936C017C0187E0E80EF11CD0E0BD
:100B6000C0E0062F10E0B8010C2E02C07595679505
:100B70000A94E2F76170F70181917F010E940E02F1
:100B80002196C430D10579F7C601DF91CF911F912D
:100B90000F91FF90EF90DF90CF900C948C05CF9247
:100BA000DF92EF92FF920F931F93CF93DF93EC01AD
:100BB000F62E642F8C810E940E028D818F3F19F0DA
:100BC00060E00E940E020F2D10E08F8584FF25C08B
:100BD0006E0187E0C80ED11CF12CE12CB8010E2C5F
:100BE00002C0759567950A94E2F76170F6018191EC
:100BF0006F010E940E02FFEFEF1AFF0A88E0E8166D
:100C0000F10461F7CE01DF91CF911F910F91FF9019
:100C1000EF90DF90CF900C948C05B80184E075952F
:100C200067958A95E1F7CE010E94A2056F2DCE014E
:100C3000DF91CF911F910F91FF90EF90DF90CF90B8
:100C40000C94A20540E0682F81E093E00C94CF055E
:100C500081E00E9422068BE39FE10197F1F708955E
:100C6000CF93DF93823029F4909110039860909392
:100C70001003809314031092150380E480931603ED
:100C800080E18093170380E58093180361E08091F1
:100C900005030E943C02809106038F3F19F061E03A
:100CA0000E943C0261E0809107030E943C02C1E087
:100CB000D3E09E01215033408091100384FD0BC08E
:100CC00084E090E021962817390744F461E08E8192
:100CD0000E943C02EECF88E090E0F4CF8BE39DE0F1
:100CE0000197F1F760E0809105030E940E0260E039
:100CF000809107030E940E02809106038F3F19F036
:100D000060E00E940E028091100384FD34C063E015
:100D100081E093E00E94A205CBE4D6E4CE010197E6
:100D2000F1F763E081E093E00E94A2052197F1F7DB
:100D300063E081E093E00E94A20583E592E00197E1
:100D4000F1F762E081E093E00E94A2058091100338
:100D500080620E94220684E0809311038CE00E944E
:100D600022060E94280682E08093120386E0DF912B
:100D7000CF910C94220680620E9422068BE496E4B6
:100D80000197F1F78091100380620E94220683E5AB
:100D900092E00197F1F78091100380620E94220691
:100DA000D5CF90911403691710F06FEF690FE62FFC
:100DB000F0E0EF5FFC4F9489890F80680C94220665
:100DC00041E00E94CF0581E090E008950F931F93CA
:100DD000CF93DF938C01D0E0C0E0F801EC0FFD1F52
:100DE0006491662339F041E081E093E00E94CF05F1
:100DF0002196F3CFCE01DF91CF911F910F910895EE
:100E0000FC0101900020E9F73197AF01481B590B15
:100E1000BC0181E093E00C94AF008F929F92AF925F
:100E2000BF920F931F93CF93DF93CDB7DEB7A197F8
:100E30000FB6F894DEBF0FBECDBF19A2423008F442
:100E40004AE08E010F5D1F4F842E912CB12CA12CF6
:100E5000A50194010E940715E62FB901CA01EA30E5
:100E6000F4F4E05DD801EE938D01232B242B252B88
:100E700079F790E080E0109719F0CD010E9400070B
:100E8000A1960FB6F894DEBF0FBECDBFDF91CF9114
:100E90001F910F91BF90AF909F908F900895E95C44
:100EA000E1CFCF92DF92EF92FF926C01990FEE08A3
:100EB000FF08F7FE16C041E06DE281E093E00E947A
:100EC000CF0566277727CB016C197D098E099F090D
:100ED0004AE00E940D070196FF90EF90DF90CF90BF
:100EE00008954AE0C701B601FF90EF90DF90CF90E0
:100EF0000C940D070C9400070F931F93CF93DF936F
:100F00008C01EB018091E9029091EA02009739F09F
:100F10002091EB023091EC0226173707B8F4BE019E
:100F20006F5F7F4F0E9468160097E1F09093EA028E
:100F30008093E902D093EC02C093EB022091ED0282
:100F40003091EE02232B11F4FC011082D093EE02BB
:100F5000C093ED02B8018091E9029091EA020E94EB
:100F60002E1714C08091E9029091EA02009711F0C7
:100F70000E94DF151092EA021092E9021092EE022E
:100F80001092ED021092EC021092EB0289EE92E0C8
:100F9000DF91CF911F910F9108951F93CF93DF930E
:100FA00085ED8093BC008091BD019091BE01A09120
:100FB000BF01B091C0010796A11DB11D23E0B695F8
:100FC000A795979587952A95D1F72091BC0024FD88
:100FD00003C01092050252C04091BD015091BE0164
:100FE0006091BF017091C001452B462B472B69F3DF
:100FF0000097A105B10541F025E32A95F1F700001E
:101000000197A109B109E1CF8091BC01C1E0C09372
:10101000BB01882399F1D091B8001091BA0080915A
:10102000BC008A7B8093BC0060E082E10E940E02DB
:1010300060E083E10E940E0210920502C093070255
:101040001092060261E082E10E940E0261E083E1FB
:101050000E940E028091B9008E7F8093B90080912A
:10106000B9008D7F8093B90088E48093B80085E44F
:101070008093BC001093BA00D093B800DF91CF9159
:101080001F9108950C94FC136091140181E090E08D
:101090000E9442086091120182E090E00E944208A2
:1010A0006091100183E090E00E94420860913A0252
:1010B00084E090E00C9442080C94F4131F920F9279
:1010C0000FB60F9211242F933F934F935F936F931B
:1010D0007F938F939F93AF93BF93EF93FF938CE492
:1010E00092E00E942D01FF91EF91BF91AF919F91EE
:1010F0008F917F916F915F914F913F912F910F90C1
:101100000FBE0F901F9018951F920F920FB60F925F
:1011100011242F938F939F93EF93FF93E0915C02A1
:10112000F0915D028081E0916202F091630282FDA4
:101130001BC09081809165028F5F8F732091660242
:10114000821741F0E0916502F0E0E45BFD4F958F7E
:1011500080936502FF91EF919F918F912F910F9056
:101160000FBE0F901F9018958081F4CF1F920F92A1
:101170000FB60F9211242F933F938F939F93AF93AA
:10118000BF9380912C0290912D02A0912E02B091DC
:101190002F0230912B0223E0230F2D3758F50196B3
:1011A000A11DB11D20932B0280932C0290932D0240
:1011B000A0932E02B0932F028091300290913102C1
:1011C000A0913202B09133020196A11DB11D80930E
:1011D000300290933102A0933202B0933302BF9158
:1011E000AF919F918F913F912F910F900FBE0F90D4
:1011F0001F90189526E8230F0296A11DB11DD2CF8E
:101200001F920F920FB60F9211242F933F934F937B
:101210005F936F937F938F939F93AF93BF93EF935E
:10122000FF938091B900887F803609F44AC0F0F5B9
:10123000883209F4A5C018F5803109F499C0B8F4D2
:10124000882309F4F5C0883009F492C0FF91EF912A
:10125000BF91AF919F918F917F916F915F914F91CE
:101260003F912F910F900FBE0F901F9018958831CE
:1012700009F486C0803251F78093040214C0803490
:1012800009F49BC040F48033B9F38833F9F68093B6
:10129000040285ECAEC0803509F483C0883509F4BA
:1012A00094C0883499F60E94CD07D0CF883909F4CC
:1012B0008AC038F5883729F050F4883611F0803725
:1012C00029F683E0809305021092030255C0883806
:1012D00009F479C0803919F0803809F0B7CF8091CE
:1012E0000302803208F06FC0E091030281E08E0FAC
:1012F000809303028091BB00F0E0ED51FE4F8083AC
:101300003BC0803B39F0D0F4803A09F477C0883A8A
:1013100009F09CCF84E0809305021092E2011092C4
:10132000E101F0E0E0E009958091E10181110FC059
:1013300081E08093E1011092C10109C0803C09F471
:10134000A8CF883C09F4A5CF883B09F07FCFE09176
:10135000E20181E08E0F8093E201F0E0EF53FE4F57
:1013600080818093BB009091E2018091E10129C0CE
:1013700080912A028093BB0085EC8093BC0066CFED
:101380009091290280912802981758F5E09129023E
:1013900081E08E0F80932902F0E0E85FFD4F8081AD
:1013A000E9CFE091290281E08E0F8093290280919C
:1013B000BB00F0E0E85FFD4F8083909129028091AF
:1013C00028029817C8F285E8D8CFE091290281E079
:1013D0008E0F809329028091BB00F0E0E85FFD4F03
:1013E00080838091070281115ECF81E080930602A5
:1013F00084EA8093BC001092050228CF85EC80938C
:10140000BC001092050280910302803230F4E0911A
:101410000302F0E0ED51FE4F10826091030270E094
:1014200083EE91E0F0E0E0E00995109203020ECF28
:101430001092040238CFCF93ECE4F2E013821282D0
:1014400088EE93E0A0E0B0E084839583A683B78321
:101450008EE291E09183808385EC90E0958784878C
:1014600084EC90E09787868780EC90E0918B808B6E
:1014700081EC90E0938B828B82EC90E0958B848B57
:1014800086EC90E0978B868B118E128E138E148EC5
:10149000E1E0F3E01382128280E491E091838083A3
:1014A00082E084838FEF8583C3E0C68384E08783F3
:1014B00085E0808786E0818787E0828713861486AF
:1014C00015861686178681E00E943006E7EFF2E067
:1014D00082E1818383E18083EFEEF2E08EED97E09D
:1014E0009683858381E084838383108211821282B4
:1014F000C783E9EEF2E01182108213821282158214
:10150000148262E070E08AE991E0CF910C947C074C
:10151000CF93DF93CDB7DEB766970FB6F894DEBFF3
:101520000FBECDBF789484B5826084BD84B58160E0
:1015300084BD85B5826085BD85B5816085BD80919E
:101540006E00816080936E00109281008091810016
:10155000826080938100809181008160809381000E
:10156000809180008160809380008091B1008460D0
:101570008093B1008091B00081608093B000809131
:101580007A00846080937A0080917A0082608093F0
:101590007A0080917A00816080937A0080917A004D
:1015A000806880937A001092C100E0915C02F09113
:1015B0005D0282E08083E0915802F091590210822E
:1015C000E0915A02F0915B028FEC808310926402EA
:1015D000E0916002F091610286E08083E0915E021A
:1015E000F0915F02808180618083E0915E02F091E2
:1015F0005F02808188608083E0915E02F0915F02EB
:10160000808180688083E0915E02F0915F0280813A
:101610008F7D80838091F802823109F0E1C580914D
:10162000F702833109F0DCC581E08093000361E0BB
:1016300082E10E940E0261E083E10E940E0280912D
:10164000B9008E7F8093B9008091B9008D7F80931F
:10165000B9008CE08093B80085E08093BC0062E024
:101660008EE00E943C0262E08FE00E943C0262E059
:1016700080E10E943C0262E081E10E943C0261E064
:1016800088E00E943C0261E089E00E943C0261E047
:101690008AE00E943C0288E40E94220608E011E0F1
:1016A000F80161918F0181E093E00E94E006F1E092
:1016B00000311F07A9F780E50E94220600E011E033
:1016C00068E0E62E61E0F62EF80161918F0181E07D
:1016D00093E00E94E006E016F106B1F782E00E9476
:1016E000300660E080E00E94D10660E083E00E9466
:1016F000D10688E491E00E947A0761E081E00E94CF
:10170000D10683E591E00E947A0760ED77E080E002
:1017100090E00E94EA020E94280682E390E00E9484
:101720005C0881110E94440860E082E390E00E941E
:10173000420881E090E00E945C0890E090931501DF
:101740008093140182E090E00E945C0890E0909306
:1017500013018093120183E090E00E945C0890E006
:10176000909311018093100184E090E00E945C0846
:1017700090E090933B0280933A020AE010E022242A
:101780002394312C0E948E042093EF023093F002B8
:101790004093F1025093F2026093F3027093F402CB
:1017A0008093F5029093F6028EE0ECE1F1E0DE0129
:1017B000119601900D928A95E1F70E948E042F8771
:1017C000388B498B5A8B6B8B7C8B8D8B9E8B292F07
:1017D0002150330BF901EE0FFF1F81E090E08C0FD9
:1017E0009D1FE80FF91F80819181009709F400C5C2
:1017F000FC0101900020E9F73197BF01681B790BCC
:101800000E947C0780914A0290914B02892B59F5E6
:101810008091EF0290E0909349028093480280917A
:10182000F00290E090934702809346028091F1028B
:1018300090E090934502809344028091F20290E000
:1018400090934302809342028091F30290E0909340
:101850004102809340028091F4029091F5029093AE
:101860003F0280933E0280913C0290913D02892B81
:1018700009F025C160E080E00E94D1068091480215
:1018800090914902B8010E94F314CB01B8010E9463
:10189000F3140E9451078091480290914902B801C7
:1018A0000E94F3140E94510782E691E00E947A0799
:1018B0008091460290914702B8010E94F314CB0137
:1018C000B8010E94F3140E94510780914602909142
:1018D0004702B8010E94F3140E94510782E691E08A
:1018E0000E947A078091440290914502B8010E94BB
:1018F000F314CB01B8010E94F3140E9451078091A8
:10190000440290914502B8010E94F3140E945107CD
:101910008BE991E00E947A0780913A0290913B0214
:10192000019709F07AC462E081E093E00E94E0064A
:101930008BE991E00E947A0761E081E093E00E94E8
:10194000E00681E10E942F04F82E82E10E942F041C
:10195000682F70E036E0759567953A95E1F7072EA8
:10196000000C880B990B0E94D71220E030E040E871
:101970005EE30E9436134B015C016F2D70E090E036
:1019800080E00E94D5129B01AC01C501B4010E9408
:1019900042146B017C014B015C01AC019B010E9474
:1019A000E214882309F43EC484E691E00E94000713
:1019B0006FED81E093E00E94E00680E791E00E94F5
:1019C0007A078AE991E00E947A0761E081E00E944B
:1019D000D1064091ED025091EE026091E9027091C2
:1019E000EA0281E093E00E94AF008BE991E00E945F
:1019F0007A078091420290914302B8010E94F31449
:101A0000CB01B8010E94F3140E9451078091420259
:101A100090914302B8010E94F3140E94510782E79B
:101A200091E00E947A078091400290914102B801B2
:101A30000E94F314CB01B8010E94F3140E945107D5
:101A40008091400290914102B8010E94F3140E94DB
:101A5000510782E791E00E947A0780913E029091BF
:101A60003F0268EE73E00E94F314CB01B8010E94BC
:101A7000F3140E94510780913E0290913F0264E668
:101A800070E00E94F314CB01B8010E94F3140E948D
:101A9000510780913E0290913F02B8010E94F314D9
:101AA000CB01B8010E94F3140E94510780913E02BD
:101AB00090913F02B8010E94F3140E945107809157
:101AC0004A0290914B02089709F083C060E080E0E1
:101AD0000E94D10685EF90E00E94E60661E080E07A
:101AE0000E94D10684EE90E00E94E60668EE73E064
:101AF00080E090E00E94EA0280914802883158F527
:101B0000D09046029BE39D1530F1E09044029E1573
:101B100010F12AE0F22E6F2D0E94E7148295807F4B
:101B2000682F690F82E00E94C4038D2D6F2D0E94E3
:101B3000E7148295807F682F690F81E00E94C403BB
:101B40008E2D6F2D0E94E7148295807F682F690F7C
:101B500080E00E94C403E09042028FEF8E0D8F312F
:101B600090F5D09040028FEF8D0D8C3060F5809114
:101B70003E0290913F02805D9740883EE3E09E07E1
:101B800010F59AE0F92E6F2D0E94E7148295807F60
:101B9000682F690F86E00E94C4038D2D6F2D0E946F
:101BA000E7148295807F682F690F85E00E94C40347
:101BB0008E2D6F2D0E94E7148295807F682F690F0C
:101BC00084E00E94C4030E94280610924B021092E7
:101BD0004A0280913C0290913D02059711F560E028
:101BE00080E00E94D10683ED90E00E94E60661E06D
:101BF00080E00E94D10682EC90E00E94E6060E94FE
:101C0000440860ED77E080E090E00E94EA020E94E4
:101C1000280610923D0210923C0230923902209226
:101C20003802E0903C02F0903D021E141F0424F4A0
:101C300010923902109238028EE00E94E501892B41
:101C4000C1F48091360290913702892B91F48091F2
:101C50004A0290914B0230923702209236021E14B3
:101C60001F040CF034C325E030E030933D02209394
:101C70003C0281E10E94E501892BF1F4809136025A
:101C800090913702892BC1F420914A0230914B0286
:101C900080913C0290913D023092370220923602B0
:101CA000121613060CF019C388E090E090934B02D3
:101CB00080934A020E9428068EE00E94E501019767
:101CC00049F481E10E94E501019721F41092370265
:101CD000109236028FE00E94E501892B09F061C065
:101CE00020913C0230913D0280914A0290914B023A
:101CF000223031050CF4F7C2892B09F437C38091E7
:101D0000480290914902489724F01092490210929B
:101D100048028091460290914702CC9724F010929D
:101D20004702109246028091440290914502CC975E
:101D300024F0109245021092440280913402909156
:101D40003502089724F010923502109234028091E7
:101D5000420290914302809724F010924302109225
:101D6000420280914002909141020D9724F010921E
:101D700041021092400280913E0290913F028F3EBC
:101D8000974034F020ED37E030933F0220933E023D
:101D9000609134028FEF860F873018F483E00E9441
:101DA000C40380E10E94E501892B09F06CC02091F9
:101DB0003C0230913D0280914A0290914B022230C8
:101DC00031050CF4F8C2892B09F438C3809148021C
:101DD0009091490297FF06C087E190E090934902F5
:101DE00080934802809146029091470297FF06C077
:101DF0008BE390E0909347028093460280914402E7
:101E00009091450297FF06C0EBE3F0E0F0934502A6
:101E1000E0934402809134029091350297FF06C00E
:101E200027E030E030933502209334028091420263
:101E30009091430297FF06C08FE190E09093430298
:101E400080934202809140029091410297FF06C028
:101E5000ECE0F0E0F0934102E093400280913E021A
:101E600090913F0297FF06C02EEE37E030933F027D
:101E700020933E02609134028FEF860F873018F472
:101E800083E00E94C40380914A0290914B02892B07
:101E900009F069C080913C0290913D021816190624
:101EA0000CF061C060E080E00E94D10684E791E020
:101EB0000E947A0780913A0290913B02892B09F0A7
:101EC000E2C28BE791E00E947A0761E084E00E9421
:101ED000D1068091140190911501B8010E94F3146C
:101EE000CB01B8010E94F3140E94510780911401A4
:101EF00090911501B8010E94F3140E94510782E6E7
:101F000091E00E947A078091120190911301B8012B
:101F10000E94F314CB01B8010E94F3140E945107F0
:101F20008091120190911301B8010E94F3140E9454
:101F3000510782E691E00E947A078091100190910A
:101F40001101B8010E94F314CB01B8010E94F314EF
:101F50000E9451078091100190911101B8010E94D7
:101F6000F3140E94510764E670E080E090E00E9464
:101F7000EA0280913C0290913D02029774F48091B4
:101F80004A0290914B02019741F460E080E00E9488
:101F9000D1068AE991E00E947A0780913C029091F3
:101FA0003D02029774F480914A0290914B0202978D
:101FB00041F460E083E00E94D1068AE991E00E944A
:101FC0007A0780913C0290913D02029774F48091CF
:101FD0004A0290914B02039741F460E086E00E9430
:101FE000D1068AE991E00E947A0780913C029091A3
:101FF0003D02029774F480914A0290914B0204973B
:1020000041F461E081E00E94D10689E991E00E94FB
:102010007A0780913C0290913D02029774F480917E
:102020004A0290914B02059741F461E085E00E94DD
:10203000D1068AE991E00E947A0780913C02909152
:102040003D02029774F480914A0290914B020697E8
:1020500041F461E088E00E94D1068AE991E00E94A3
:102060007A0780913C0290913D02029774F480912E
:102070004A0290914B02079741F461E08BE00E9485
:10208000D10688E991E00E947A0780914A029091F6
:102090004B02892B71F480913C0290913D02019793
:1020A00041F460E086E00E94D10681E991E00E945F
:1020B0007A0780914A0290914B02892B71F48091AA
:1020C0003C0290913D02029741F461E084E00E945D
:1020D000D1068AE991E00E947A0780914A029091A4
:1020E0004B02892B71F480913C0290913D02039741
:1020F00041F461E087E00E94D1068AE991E00E9404
:102100007A0780914A0290914B02892B71F4809159
:102110003C0290913D02049741F461E08AE00E9404
:10212000D1068AE991E00E947A0780913802909165
:102130003902019709F0AAC180913A0290913B02BD
:10214000019709F0A3C12091480230914902809182
:102150001401909115012817390709F097C12091B2
:102160004602309147028091120190911301281785
:10217000390709F08BC120914402309145028091CA
:10218000100190911101281739070CF47FC161E00B
:1021900088E00E940E0261E089E00E940E0261E088
:1021A0008AE00E940E026CE271E080E090E00E9402
:1021B000EA0260E088E00E940E0264E670E080E0DF
:1021C00090E00E94EA0280E090E0892B09F4DACAEC
:1021D0000E941901882309F4D5CA0E940000D2CABE
:1021E0001092000361E08091F7020E943C0237CA1E
:1021F0008091E9029091EA02009711F00E94DF15A8
:102200001092EA021092E9021092EE021092ED0290
:102210001092EC021092EB02F5CA8BE991E00E9459
:102220007A0786CB26013701E89477F82FEF3FEF46
:102230004FE75FE7C301B2010E94E21481110DC0B4
:102240002FEF3FEF4FE75FE7C301B2010E94D012CB
:1022500018161CF488E691E0A9CB2FEF3FEF4FE76B
:102260005FE4C701B6010E94DD1418161CF48CE669
:1022700091E09CCB2FEF3FEF4FE75FECC701B6013A
:102280000E94D01287FDF3CF20E030E0A901C70102
:10229000B6010E94D01287FF0CC041E06DE281E0E0
:1022A00093E00E94CF0546015701B7FAB094B7F802
:1022B000B09420E030E040E05FE3C501B4010E944B
:1022C00042140E94AE144AE00E940D0771CB0196A1
:1022D00090934B0280934A02CCCC019690933D029E
:1022E00080933C02E7CC8130910509F0DAC040913F
:1022F0004802509149024F5F5F4F5093490240930B
:10230000480284309105D1F08530910509F0DBC099
:1023100040914202509143024F5F5F4F50934302FE
:1023200040934202E9CC40914602509147024F5FF0
:102330005F4F5093470240934602E3CF40913402EF
:10234000509135024F5F5F4F5093350240933402F6
:102350008730910509F0D0CC80913E0290913F02E8
:10236000019690933F0280933E02C9CC2130310503
:1023700009F0B8C030933B0220933A02C0CC809160
:10238000140190911501873191050CF0B8CC01969C
:102390009093150180931401B2CC80911201909119
:1023A00013018B3391050CF0AACC01969093130185
:1023B00080931201A4CC8130910509F0ADC0409109
:1023C00048025091490241505109509349024093AB
:1023D000480284309105D1F08530910509F0AEC0F6
:1023E000409142025091430241505109509343029F
:1023F00040934202E8CC409146025091470241503E
:1024000051095093470240934602E3CF4091340272
:102410005091350241505109509335024093340296
:102420008730910509F0CFCC80913E0290913F0218
:10243000019790933F0280933E02C8CC2130310532
:1024400009F08BC010923B0210923A02BFCC8091EF
:10245000140190911501181619060CF0B7CC0197CC
:102460009093150180931401B1CC80911201909149
:102470001301181619060CF0A9CC019790931301BB
:1024800080931201A3CC86E891E01DCD60E088E046
:102490000E940E0260E089E00E940E0260E08AE085
:1024A0008ACE8230910509F43ECF8330910509F040
:1024B00028CF40914402509145024F5F5F4F5093A7
:1024C0004502409344028630910509F041CF409186
:1024D0004002509141024F5F5F4F50934102409341
:1024E00040020ACC2230310509F449CF23303105AE
:1024F00009F453CF2430310509F001CC809110014B
:10250000909111018B3391050CF0F9CB01969093CA
:10251000110180931001F3CB8230910509F46BCF48
:102520008330910509F055CF409144025091450206
:102530004150510950934502409344028630910521
:1025400009F06ECF40914002509141024150510933
:10255000509341024093400236CC2230310509F4B9
:1025600076CF2330310509F480CF2430310509F0CE
:102570002DCC8091100190911101181619060CF0C4
:1025800025CC019790931101809310011FCC80916D
:10259000E9029091EA02009711F00C94DF1508957A
:1025A0000E94121308F481E00895E89409C097FB93
:1025B0003EF490958095709561957F4F8F4F9F4F1A
:1025C0009923A9F0F92F96E9BB279395F69587955E
:1025D00077956795B795F111F8CFFAF4BB0F11F421
:1025E00060FF1BC06F5F7F4F8F4F9F4F16C08823C8
:1025F00011F096E911C0772321F09EE8872F762FFE
:1026000005C0662371F096E8862F70E060E02AF03E
:102610009A95660F771F881FDAF7880F969587952A
:1026200097F90895990F0008550FAA0BE0E8FEEFFF
:1026300016161706E807F907C0F012161306E40786
:10264000F50798F0621B730B840B950B39F40A267F
:1026500061F0232B242B252B21F408950A2609F45D
:10266000A140A6958FEF811D811D08950E944913F9
:102670000C94BA130E94AC1338F00E94B31320F0EC
:10268000952311F00C94A3130C94A91311240C940A
:10269000EE130E94CB1370F3959FC1F3950F50E09A
:1026A000551F629FF001729FBB27F00DB11D639F04
:1026B000AA27F00DB11DAA1F649F6627B00DA11DAA
:1026C000661F829F2227B00DA11D621F739FB00D50
:1026D000A11D621F839FA00D611D221F749F3327C0
:1026E000A00D611D231F849F600D211D822F762F59
:1026F0006A2F11249F5750409AF0F1F088234AF036
:10270000EE0FFF1FBB1F661F771F881F91505040A1
:10271000A9F79E3F510580F00C94A3130C94EE137F
:102720005F3FE4F3983ED4F3869577956795B79528
:10273000F795E7959F5FC1F7FE2B880F911D969542
:10274000879597F9089597F99F6780E870E060E0B2
:1027500008959FEF80EC089500240A94161617063A
:1027600018060906089500240A9412161306140682
:1027700005060895092E0394000C11F4882352F0E5
:10278000BB0F40F4BF2B11F460FF04C06F5F7F4F9D
:102790008F4F9F4F089557FD9058440F551F59F084
:1027A0005F3F71F04795880F97FB991F61F09F3F3E
:1027B00079F087950895121613061406551FF2CF67
:1027C0004695F1DF08C0161617061806991FF1CFB7
:1027D00086957105610508940895E894BB276627DE
:1027E0007727CB0197F90895F999FECF92BD81BD66
:1027F000F89A992780B50895262FF999FECF1FBA28
:1028000092BD81BD20BD0FB6F894FA9AF99A0FBE19
:10281000019608952F923F924F925F926F927F920E
:102820008F929F92AF92BF92CF92DF92EF92FF92E0
:102830000F931F93CF93DF93CDB7DEB7CA1BDB0B8C
:102840000FB6F894DEBF0FBECDBF09942A88398831
:1028500048885F846E847D848C849B84AA84B98438
:10286000C884DF80EE80FD800C811B81AA81B98144
:10287000CE0FD11D0FB6F894DEBF0FBECDBFED0158
:1028800008955058BB27AA270E9459140C94BA13D4
:102890000E94AC1338F00E94B31320F039F49F3F2C
:1028A00019F426F40C94A9130EF4E095E7FB0C94AC
:1028B000A313E92F0E94CB1358F3BA1762077307CB
:1028C0008407950720F079F4A6F50C94ED130EF427
:1028D000E0950B2EBA2FA02D0B01B90190010C0130
:1028E000CA01A0011124FF27591B99F0593F50F448
:1028F000503E68F11A16F040A22F232F342F4427A0
:10290000585FF3CF469537952795A795F040539597
:10291000C9F77EF41F16BA0B620B730B840BBAF067
:102920009150A1F0FF0FBB1F661F771F881FC2F7D2
:102930000EC0BA0F621F731F841F48F487957795E6
:102940006795B795F7959E3F08F0B0CF9395880FA0
:1029500008F09927EE0F9795879508950E94D31355
:1029600088F09F5798F0B92F9927B751B0F0E1F050
:10297000660F771F881F991F1AF0BA95C9F714C000
:10298000B13091F00E94ED13B1E008950C94ED1375
:10299000672F782F8827B85F39F0B93FCCF3869539
:1029A00077956795B395D9F73EF490958095709596
:1029B00061957F4F8F4F9F4F08950E94121308F427
:1029C0008FEF08950E941213880B990B0895991B9D
:1029D00079E004C0991F961708F0961B881F7A9516
:1029E000C9F78095089597FB072E16F4009407D039
:1029F00077FD09D00E94291507FC05D03EF490957B
:102A000081959F4F0895709561957F4F0895A1E23C
:102A10001A2EAA1BBB1BFD010DC0AA1FBB1FEE1F58
:102A2000FF1FA217B307E407F50720F0A21BB30BA3
:102A3000E40BF50B661F771F881F991F1A9469F71F
:102A400060957095809590959B01AC01BD01CF017B
:102A50000895AA1BBB1B51E107C0AA1FBB1FA617E5
:102A6000B70710F0A61BB70B881F991F5A95A9F737
:102A700080959095BC01CD010895EE0FFF1F059044
:102A8000F491E02D09940F931F93CF93DF9382303D
:102A9000910510F482E090E0E0911B03F0911C039B
:102AA00030E020E0B0E0A0E0309799F42115310546
:102AB00009F44AC0281B390B24303105D8F58A8126
:102AC0009B816115710589F1FB0193838283FE016E
:102AD00011C0408151810281138148175907E0F0EC
:102AE0004817590799F4109761F012960C931297B2
:102AF00013961C933296CF01DF91CF911F910F91C6
:102B0000089500931B0310931C03F4CF2115310586
:102B100051F04217530738F0A901DB019A01BD01BA
:102B2000DF01F801C1CFEF01F9CF90931C0380932F
:102B30001B03CDCFFE01E20FF31F8193919322502F
:102B4000310939832883D7CF2091190330911A0393
:102B5000232B41F4209118013091190130931A036D
:102B60002093190320911601309117012115310589
:102B700041F42DB73EB740911A0150911B01241B1F
:102B8000350BE0911903F0911A03E217F307A0F453
:102B90002E1B3F0B2817390778F0AC014E5F5F4FB3
:102BA0002417350748F04E0F5F1F50931A034093C8
:102BB0001903819391939FCFF0E0E0E09CCFCF93F6
:102BC000DF930097E9F0FC01329713821282A09103
:102BD0001B03B0911C03ED0130E020E01097A1F43D
:102BE00020813181820F931F2091190330911A03A4
:102BF0002817390709F061C0F0931A03E09319030D
:102C0000DF91CF910895EA01CE17DF07E8F54A81F9
:102C10005B819E0141155105B1F7E901FB83EA8310
:102C200049915991C40FD51FEC17FD0761F48081BC
:102C300091810296840F951FE9019983888382818F
:102C400093819B838A83F0E0E0E012968D919C91C2
:102C500013970097B9F52D913C911197CD010296EC
:102C6000820F931F2091190330911A0328173907F7
:102C700039F6309751F510921C0310921B03B09354
:102C80001A03A0931903BCCFD383C283408151811F
:102C9000840F951FC817D90761F44E5F5F4F888175
:102CA0009981480F591F518340838A819B81938367
:102CB00082832115310509F0B0CFF0931C03E09316
:102CC0001B039ECFFD01DC01C0CF13821282D7CF40
:102CD000B0E0A0E0EEE6F6E10C940C148C01009755
:102CE00051F4CB010E9443158C01C801CDB7DEB76A
:102CF000E0E10C942814FC01E60FF71F9C01225020
:102D00003109E217F30708F49DC0D901CD91DC9198
:102D10001197C617D70798F0C530D10530F3CE010B
:102D200004978617970708F3C61BD70B2297C19302
:102D3000D1936D937C93CF010E94DF15D6CF5B01B9
:102D4000AC1ABD0A4C018C0E9D1EA0911B03B091C4
:102D50001C03512C412CF12CE12C109731F5809162
:102D6000190390911A038815990509F05CC046165D
:102D7000570608F058C080911601909117010097EE
:102D800041F48DB79EB740911A0150911B01841BED
:102D9000950BE817F90708F055C0F0931A03E09374
:102DA0001903F90171836083A0CF8D919C911197D4
:102DB00012966C90129713967C901397A815B905EC
:102DC00059F56C0142E0C40ED11CCA14DB0420F199
:102DD000AC014A195B09DA011296159780F06282FC
:102DE000738251834083D9016D937C93E114F10484
:102DF00071F0D7011396FC93EE93129776CF22963B
:102E00008C0F9D1FF90191838083F301EFCFF09325
:102E10001C03E0931B0369CF4816590608F42C01E4
:102E20007D01D3019ACFCB010E9443157C0100970D
:102E300049F0AE01B8010E942517C8010E94DF15B4
:102E4000870153CF10E000E050CFFB01DC0102C04E
:102E500001900D9241505040D8F70895FB01DC01DC
:102E600001900D920020E1F7089510E0C4E8D0E051
:102E700004C0FE010E943D152196C538D107C9F74F
:042E8000F894FFCFF4
:102E8400040E0E0E0E1F0804040A0A0E0E1F1F0E57
:102E940017001600150000001D0380009D01A1010C
:102EA400A501A901AD01B101B501000000004F0168
:102EB400AF00DC009C010D01EB00FF0000000000EE
:102EC400E006AF006E031C034D554C54492D434995
:102ED4005459004C4F414420205348454444494EE2
:102EE40047003A006E616E00696E66006F76660098
:102EF40043002F0054696D6572200044656163745A
:102F040069766174650041637469766174656420EF
:102F1400002020202020202020202020004D6F6E23
:102F240000547565005765640054687500467269FD
:0A2F3400005361740053756E000035
:00000001FF
